{
  "contractName": "PixieLandHouses",
  "abi": [
    {
      "inputs": [],
      "stateMutability": "nonpayable",
      "type": "constructor"
    },
    {
      "anonymous": false,
      "inputs": [
        {
          "indexed": true,
          "internalType": "address",
          "name": "owner",
          "type": "address"
        },
        {
          "indexed": true,
          "internalType": "address",
          "name": "approved",
          "type": "address"
        },
        {
          "indexed": true,
          "internalType": "uint256",
          "name": "tokenId",
          "type": "uint256"
        }
      ],
      "name": "Approval",
      "type": "event"
    },
    {
      "anonymous": false,
      "inputs": [
        {
          "indexed": true,
          "internalType": "address",
          "name": "owner",
          "type": "address"
        },
        {
          "indexed": true,
          "internalType": "address",
          "name": "operator",
          "type": "address"
        },
        {
          "indexed": false,
          "internalType": "bool",
          "name": "approved",
          "type": "bool"
        }
      ],
      "name": "ApprovalForAll",
      "type": "event"
    },
    {
      "anonymous": false,
      "inputs": [
        {
          "indexed": true,
          "internalType": "address",
          "name": "previousOwner",
          "type": "address"
        },
        {
          "indexed": true,
          "internalType": "address",
          "name": "newOwner",
          "type": "address"
        }
      ],
      "name": "OwnershipTransferred",
      "type": "event"
    },
    {
      "anonymous": false,
      "inputs": [
        {
          "indexed": true,
          "internalType": "address",
          "name": "from",
          "type": "address"
        },
        {
          "indexed": true,
          "internalType": "address",
          "name": "to",
          "type": "address"
        },
        {
          "indexed": true,
          "internalType": "uint256",
          "name": "tokenId",
          "type": "uint256"
        }
      ],
      "name": "Transfer",
      "type": "event"
    },
    {
      "inputs": [
        {
          "internalType": "address",
          "name": "to",
          "type": "address"
        },
        {
          "internalType": "uint256",
          "name": "tokenId",
          "type": "uint256"
        }
      ],
      "name": "approve",
      "outputs": [],
      "stateMutability": "nonpayable",
      "type": "function"
    },
    {
      "inputs": [
        {
          "internalType": "address",
          "name": "owner",
          "type": "address"
        }
      ],
      "name": "balanceOf",
      "outputs": [
        {
          "internalType": "uint256",
          "name": "",
          "type": "uint256"
        }
      ],
      "stateMutability": "view",
      "type": "function",
      "constant": true
    },
    {
      "inputs": [
        {
          "internalType": "uint256",
          "name": "tokenId",
          "type": "uint256"
        }
      ],
      "name": "getApproved",
      "outputs": [
        {
          "internalType": "address",
          "name": "",
          "type": "address"
        }
      ],
      "stateMutability": "view",
      "type": "function",
      "constant": true
    },
    {
      "inputs": [
        {
          "internalType": "address",
          "name": "owner",
          "type": "address"
        },
        {
          "internalType": "address",
          "name": "operator",
          "type": "address"
        }
      ],
      "name": "isApprovedForAll",
      "outputs": [
        {
          "internalType": "bool",
          "name": "",
          "type": "bool"
        }
      ],
      "stateMutability": "view",
      "type": "function",
      "constant": true
    },
    {
      "inputs": [],
      "name": "name",
      "outputs": [
        {
          "internalType": "string",
          "name": "",
          "type": "string"
        }
      ],
      "stateMutability": "view",
      "type": "function",
      "constant": true
    },
    {
      "inputs": [],
      "name": "owner",
      "outputs": [
        {
          "internalType": "address",
          "name": "",
          "type": "address"
        }
      ],
      "stateMutability": "view",
      "type": "function",
      "constant": true
    },
    {
      "inputs": [
        {
          "internalType": "uint256",
          "name": "tokenId",
          "type": "uint256"
        }
      ],
      "name": "ownerOf",
      "outputs": [
        {
          "internalType": "address",
          "name": "",
          "type": "address"
        }
      ],
      "stateMutability": "view",
      "type": "function",
      "constant": true
    },
    {
      "inputs": [],
      "name": "renounceOwnership",
      "outputs": [],
      "stateMutability": "nonpayable",
      "type": "function"
    },
    {
      "inputs": [
        {
          "internalType": "address",
          "name": "from",
          "type": "address"
        },
        {
          "internalType": "address",
          "name": "to",
          "type": "address"
        },
        {
          "internalType": "uint256",
          "name": "tokenId",
          "type": "uint256"
        }
      ],
      "name": "safeTransferFrom",
      "outputs": [],
      "stateMutability": "nonpayable",
      "type": "function"
    },
    {
      "inputs": [
        {
          "internalType": "address",
          "name": "from",
          "type": "address"
        },
        {
          "internalType": "address",
          "name": "to",
          "type": "address"
        },
        {
          "internalType": "uint256",
          "name": "tokenId",
          "type": "uint256"
        },
        {
          "internalType": "bytes",
          "name": "_data",
          "type": "bytes"
        }
      ],
      "name": "safeTransferFrom",
      "outputs": [],
      "stateMutability": "nonpayable",
      "type": "function"
    },
    {
      "inputs": [
        {
          "internalType": "address",
          "name": "operator",
          "type": "address"
        },
        {
          "internalType": "bool",
          "name": "approved",
          "type": "bool"
        }
      ],
      "name": "setApprovalForAll",
      "outputs": [],
      "stateMutability": "nonpayable",
      "type": "function"
    },
    {
      "inputs": [
        {
          "internalType": "bytes4",
          "name": "interfaceId",
          "type": "bytes4"
        }
      ],
      "name": "supportsInterface",
      "outputs": [
        {
          "internalType": "bool",
          "name": "",
          "type": "bool"
        }
      ],
      "stateMutability": "view",
      "type": "function",
      "constant": true
    },
    {
      "inputs": [],
      "name": "symbol",
      "outputs": [
        {
          "internalType": "string",
          "name": "",
          "type": "string"
        }
      ],
      "stateMutability": "view",
      "type": "function",
      "constant": true
    },
    {
      "inputs": [],
      "name": "totalHouses",
      "outputs": [
        {
          "internalType": "uint256",
          "name": "_value",
          "type": "uint256"
        }
      ],
      "stateMutability": "view",
      "type": "function",
      "constant": true
    },
    {
      "inputs": [
        {
          "internalType": "address",
          "name": "from",
          "type": "address"
        },
        {
          "internalType": "address",
          "name": "to",
          "type": "address"
        },
        {
          "internalType": "uint256",
          "name": "tokenId",
          "type": "uint256"
        }
      ],
      "name": "transferFrom",
      "outputs": [],
      "stateMutability": "nonpayable",
      "type": "function"
    },
    {
      "inputs": [
        {
          "internalType": "address",
          "name": "newOwner",
          "type": "address"
        }
      ],
      "name": "transferOwnership",
      "outputs": [],
      "stateMutability": "nonpayable",
      "type": "function"
    },
    {
      "inputs": [
        {
          "internalType": "string",
          "name": "baseURI",
          "type": "string"
        }
      ],
      "name": "setBaseURI",
      "outputs": [],
      "stateMutability": "nonpayable",
      "type": "function"
    },
    {
      "inputs": [],
      "name": "mintHouse",
      "outputs": [],
      "stateMutability": "payable",
      "type": "function",
      "payable": true
    },
    {
      "inputs": [
        {
          "internalType": "uint256",
          "name": "tokenId",
          "type": "uint256"
        }
      ],
      "name": "tokenURI",
      "outputs": [
        {
          "internalType": "string",
          "name": "",
          "type": "string"
        }
      ],
      "stateMutability": "view",
      "type": "function",
      "constant": true
    },
    {
      "inputs": [],
      "name": "fetchBalance",
      "outputs": [],
      "stateMutability": "nonpayable",
      "type": "function"
    }
  ],
  "bytecode": "0x60806040526127106009553480156200001757600080fd5b506040518060400160405280600f81526020017f50697869654c616e64486f7573657300000000000000000000000000000000008152506040518060400160405280600381526020017f5058480000000000000000000000000000000000000000000000000000000000815250620000a4620000986200012460201b60201c565b6200012c60201b60201c565b8160019080519060200190620000bc929190620002c4565b508060029080519060200190620000d5929190620002c4565b5050506200011e6040518060400160405280600581526020017f746573742f000000000000000000000000000000000000000000000000000000815250620001f060201b60201c565b6200045c565b600033905090565b60008060009054906101000a900473ffffffffffffffffffffffffffffffffffffffff169050816000806101000a81548173ffffffffffffffffffffffffffffffffffffffff021916908373ffffffffffffffffffffffffffffffffffffffff1602179055508173ffffffffffffffffffffffffffffffffffffffff168173ffffffffffffffffffffffffffffffffffffffff167f8be0079c531659141344cd1fd0a4f28419497f9722a3daafe3b4186f6b6457e060405160405180910390a35050565b620002006200012460201b60201c565b73ffffffffffffffffffffffffffffffffffffffff16620002266200029b60201b60201c565b73ffffffffffffffffffffffffffffffffffffffff16146200027f576040517f08c379a00000000000000000000000000000000000000000000000000000000081526004016200027690620003d5565b60405180910390fd5b806008908051906020019062000297929190620002c4565b5050565b60008060009054906101000a900473ffffffffffffffffffffffffffffffffffffffff16905090565b828054620002d29062000426565b90600052602060002090601f016020900481019282620002f6576000855562000342565b82601f106200031157805160ff191683800117855562000342565b8280016001018555821562000342579182015b828111156200034157825182559160200191906001019062000324565b5b50905062000351919062000355565b5090565b5b808211156200037057600081600090555060010162000356565b5090565b600082825260208201905092915050565b7f4f776e61626c653a2063616c6c6572206973206e6f7420746865206f776e6572600082015250565b6000620003bd60208362000374565b9150620003ca8262000385565b602082019050919050565b60006020820190508181036000830152620003f081620003ae565b9050919050565b7f4e487b7100000000000000000000000000000000000000000000000000000000600052602260045260246000fd5b600060028204905060018216806200043f57607f821691505b60208210811415620004565762000455620003f7565b5b50919050565b612f84806200046c6000396000f3fe60806040526004361061011f5760003560e01c806370a08231116100a0578063b88d4fde11610064578063b88d4fde146103bf578063c87b56dd146103e8578063e985e9c514610425578063f2fde38b14610462578063f364333d1461048b5761011f565b806370a08231146102ec578063715018a6146103295780638da5cb5b1461034057806395d89b411461036b578063a22cb465146103965761011f565b80632157c46a116100e75780632157c46a1461021d57806323b872dd1461023457806342842e0e1461025d57806355f804b3146102865780636352211e146102af5761011f565b806301ffc9a71461012457806306fdde0314610161578063081812fc1461018c578063095ea7b3146101c9578063162d8afb146101f2575b600080fd5b34801561013057600080fd5b5061014b60048036038101906101469190611cc6565b610495565b6040516101589190611d0e565b60405180910390f35b34801561016d57600080fd5b50610176610577565b6040516101839190611dc2565b60405180910390f35b34801561019857600080fd5b506101b360048036038101906101ae9190611e1a565b610609565b6040516101c09190611e88565b60405180910390f35b3480156101d557600080fd5b506101f060048036038101906101eb9190611ecf565b61068e565b005b3480156101fe57600080fd5b506102076107a6565b6040516102149190611f1e565b60405180910390f35b34801561022957600080fd5b506102326107b2565b005b34801561024057600080fd5b5061025b60048036038101906102569190611f39565b610877565b005b34801561026957600080fd5b50610284600480360381019061027f9190611f39565b6108d7565b005b34801561029257600080fd5b506102ad60048036038101906102a891906120c1565b6108f7565b005b3480156102bb57600080fd5b506102d660048036038101906102d19190611e1a565b61098d565b6040516102e39190611e88565b60405180910390f35b3480156102f857600080fd5b50610313600480360381019061030e919061210a565b610a3f565b6040516103209190611f1e565b60405180910390f35b34801561033557600080fd5b5061033e610af7565b005b34801561034c57600080fd5b50610355610b7f565b6040516103629190611e88565b60405180910390f35b34801561037757600080fd5b50610380610ba8565b60405161038d9190611dc2565b60405180910390f35b3480156103a257600080fd5b506103bd60048036038101906103b89190612163565b610c3a565b005b3480156103cb57600080fd5b506103e660048036038101906103e19190612244565b610c50565b005b3480156103f457600080fd5b5061040f600480360381019061040a9190611e1a565b610cb2565b60405161041c9190611dc2565b60405180910390f35b34801561043157600080fd5b5061044c600480360381019061044791906122c7565b610d12565b6040516104599190611d0e565b60405180910390f35b34801561046e57600080fd5b506104896004803603810190610484919061210a565b610da6565b005b610493610e9e565b005b60007f80ac58cd000000000000000000000000000000000000000000000000000000007bffffffffffffffffffffffffffffffffffffffffffffffffffffffff1916827bffffffffffffffffffffffffffffffffffffffffffffffffffffffff1916148061056057507f5b5e139f000000000000000000000000000000000000000000000000000000007bffffffffffffffffffffffffffffffffffffffffffffffffffffffff1916827bffffffffffffffffffffffffffffffffffffffffffffffffffffffff1916145b80610570575061056f82610eed565b5b9050919050565b60606001805461058690612336565b80601f01602080910402602001604051908101604052809291908181526020018280546105b290612336565b80156105ff5780601f106105d4576101008083540402835291602001916105ff565b820191906000526020600020905b8154815290600101906020018083116105e257829003601f168201915b5050505050905090565b600061061482610f57565b610653576040517f08c379a000000000000000000000000000000000000000000000000000000000815260040161064a906123da565b60405180910390fd5b6005600083815260200190815260200160002060009054906101000a900473ffffffffffffffffffffffffffffffffffffffff169050919050565b60006106998261098d565b90508073ffffffffffffffffffffffffffffffffffffffff168373ffffffffffffffffffffffffffffffffffffffff16141561070a576040517f08c379a00000000000000000000000000000000000000000000000000000000081526004016107019061246c565b60405180910390fd5b8073ffffffffffffffffffffffffffffffffffffffff16610729610fc3565b73ffffffffffffffffffffffffffffffffffffffff161480610758575061075781610752610fc3565b610d12565b5b610797576040517f08c379a000000000000000000000000000000000000000000000000000000000815260040161078e906124fe565b60405180910390fd5b6107a18383610fcb565b505050565b60078060000154905081565b6107ba610fc3565b73ffffffffffffffffffffffffffffffffffffffff166107d8610b7f565b73ffffffffffffffffffffffffffffffffffffffff161461082e576040517f08c379a00000000000000000000000000000000000000000000000000000000081526004016108259061256a565b60405180910390fd5b3373ffffffffffffffffffffffffffffffffffffffff166108fc479081150290604051600060405180830381858888f19350505050158015610874573d6000803e3d6000fd5b50565b610888610882610fc3565b82611084565b6108c7576040517f08c379a00000000000000000000000000000000000000000000000000000000081526004016108be906125fc565b60405180910390fd5b6108d2838383611162565b505050565b6108f283838360405180602001604052806000815250610c50565b505050565b6108ff610fc3565b73ffffffffffffffffffffffffffffffffffffffff1661091d610b7f565b73ffffffffffffffffffffffffffffffffffffffff1614610973576040517f08c379a000000000000000000000000000000000000000000000000000000000815260040161096a9061256a565b60405180910390fd5b8060089080519060200190610989929190611bb7565b5050565b6000806003600084815260200190815260200160002060009054906101000a900473ffffffffffffffffffffffffffffffffffffffff169050600073ffffffffffffffffffffffffffffffffffffffff168173ffffffffffffffffffffffffffffffffffffffff161415610a36576040517f08c379a0000000000000000000000000000000000000000000000000000000008152600401610a2d9061268e565b60405180910390fd5b80915050919050565b60008073ffffffffffffffffffffffffffffffffffffffff168273ffffffffffffffffffffffffffffffffffffffff161415610ab0576040517f08c379a0000000000000000000000000000000000000000000000000000000008152600401610aa790612720565b60405180910390fd5b600460008373ffffffffffffffffffffffffffffffffffffffff1673ffffffffffffffffffffffffffffffffffffffff168152602001908152602001600020549050919050565b610aff610fc3565b73ffffffffffffffffffffffffffffffffffffffff16610b1d610b7f565b73ffffffffffffffffffffffffffffffffffffffff1614610b73576040517f08c379a0000000000000000000000000000000000000000000000000000000008152600401610b6a9061256a565b60405180910390fd5b610b7d60006113be565b565b60008060009054906101000a900473ffffffffffffffffffffffffffffffffffffffff16905090565b606060028054610bb790612336565b80601f0160208091040260200160405190810160405280929190818152602001828054610be390612336565b8015610c305780601f10610c0557610100808354040283529160200191610c30565b820191906000526020600020905b815481529060010190602001808311610c1357829003601f168201915b5050505050905090565b610c4c610c45610fc3565b8383611482565b5050565b610c61610c5b610fc3565b83611084565b610ca0576040517f08c379a0000000000000000000000000000000000000000000000000000000008152600401610c97906125fc565b60405180910390fd5b610cac848484846115ef565b50505050565b6060600060088054610cc390612336565b905011610cdf5760405180602001604052806000815250610d0b565b6008610cea8361164b565b604051602001610cfb92919061285c565b6040516020818303038152906040525b9050919050565b6000600660008473ffffffffffffffffffffffffffffffffffffffff1673ffffffffffffffffffffffffffffffffffffffff16815260200190815260200160002060008373ffffffffffffffffffffffffffffffffffffffff1673ffffffffffffffffffffffffffffffffffffffff16815260200190815260200160002060009054906101000a900460ff16905092915050565b610dae610fc3565b73ffffffffffffffffffffffffffffffffffffffff16610dcc610b7f565b73ffffffffffffffffffffffffffffffffffffffff1614610e22576040517f08c379a0000000000000000000000000000000000000000000000000000000008152600401610e199061256a565b60405180910390fd5b600073ffffffffffffffffffffffffffffffffffffffff168173ffffffffffffffffffffffffffffffffffffffff161415610e92576040517f08c379a0000000000000000000000000000000000000000000000000000000008152600401610e89906128fd565b60405180910390fd5b610e9b816113be565b50565b66b1a2bc2ec500003414610eb157600080fd5b600954610ebe60076117ac565b10610ec857600080fd5b6000610ed460076117ac565b9050610ee060076117ba565b610eea33826117d0565b50565b60007f01ffc9a7000000000000000000000000000000000000000000000000000000007bffffffffffffffffffffffffffffffffffffffffffffffffffffffff1916827bffffffffffffffffffffffffffffffffffffffffffffffffffffffff1916149050919050565b60008073ffffffffffffffffffffffffffffffffffffffff166003600084815260200190815260200160002060009054906101000a900473ffffffffffffffffffffffffffffffffffffffff1673ffffffffffffffffffffffffffffffffffffffff1614159050919050565b600033905090565b816005600083815260200190815260200160002060006101000a81548173ffffffffffffffffffffffffffffffffffffffff021916908373ffffffffffffffffffffffffffffffffffffffff160217905550808273ffffffffffffffffffffffffffffffffffffffff1661103e8361098d565b73ffffffffffffffffffffffffffffffffffffffff167f8c5be1e5ebec7d5bd14f71427d1e84f3dd0314c0f7b2291e5b200ac8c7c3b92560405160405180910390a45050565b600061108f82610f57565b6110ce576040517f08c379a00000000000000000000000000000000000000000000000000000000081526004016110c59061298f565b60405180910390fd5b60006110d98361098d565b90508073ffffffffffffffffffffffffffffffffffffffff168473ffffffffffffffffffffffffffffffffffffffff16148061114857508373ffffffffffffffffffffffffffffffffffffffff1661113084610609565b73ffffffffffffffffffffffffffffffffffffffff16145b8061115957506111588185610d12565b5b91505092915050565b8273ffffffffffffffffffffffffffffffffffffffff166111828261098d565b73ffffffffffffffffffffffffffffffffffffffff16146111d8576040517f08c379a00000000000000000000000000000000000000000000000000000000081526004016111cf90612a21565b60405180910390fd5b600073ffffffffffffffffffffffffffffffffffffffff168273ffffffffffffffffffffffffffffffffffffffff161415611248576040517f08c379a000000000000000000000000000000000000000000000000000000000815260040161123f90612ab3565b60405180910390fd5b6112538383836117ee565b61125e600082610fcb565b6001600460008573ffffffffffffffffffffffffffffffffffffffff1673ffffffffffffffffffffffffffffffffffffffff16815260200190815260200160002060008282546112ae9190612b02565b925050819055506001600460008473ffffffffffffffffffffffffffffffffffffffff1673ffffffffffffffffffffffffffffffffffffffff16815260200190815260200160002060008282546113059190612b36565b92505081905550816003600083815260200190815260200160002060006101000a81548173ffffffffffffffffffffffffffffffffffffffff021916908373ffffffffffffffffffffffffffffffffffffffff160217905550808273ffffffffffffffffffffffffffffffffffffffff168473ffffffffffffffffffffffffffffffffffffffff167fddf252ad1be2c89b69c2b068fc378daa952ba7f163c4a11628f55a4df523b3ef60405160405180910390a4505050565b60008060009054906101000a900473ffffffffffffffffffffffffffffffffffffffff169050816000806101000a81548173ffffffffffffffffffffffffffffffffffffffff021916908373ffffffffffffffffffffffffffffffffffffffff1602179055508173ffffffffffffffffffffffffffffffffffffffff168173ffffffffffffffffffffffffffffffffffffffff167f8be0079c531659141344cd1fd0a4f28419497f9722a3daafe3b4186f6b6457e060405160405180910390a35050565b8173ffffffffffffffffffffffffffffffffffffffff168373ffffffffffffffffffffffffffffffffffffffff1614156114f1576040517f08c379a00000000000000000000000000000000000000000000000000000000081526004016114e890612bd8565b60405180910390fd5b80600660008573ffffffffffffffffffffffffffffffffffffffff1673ffffffffffffffffffffffffffffffffffffffff16815260200190815260200160002060008473ffffffffffffffffffffffffffffffffffffffff1673ffffffffffffffffffffffffffffffffffffffff16815260200190815260200160002060006101000a81548160ff0219169083151502179055508173ffffffffffffffffffffffffffffffffffffffff168373ffffffffffffffffffffffffffffffffffffffff167f17307eab39ab6107e8899845ad3d59bd9653f200f220920489ca2b5937696c31836040516115e29190611d0e565b60405180910390a3505050565b6115fa848484611162565b611606848484846117f3565b611645576040517f08c379a000000000000000000000000000000000000000000000000000000000815260040161163c90612c6a565b60405180910390fd5b50505050565b60606000821415611693576040518060400160405280600181526020017f300000000000000000000000000000000000000000000000000000000000000081525090506117a7565b600082905060005b600082146116c55780806116ae90612c8a565b915050600a826116be9190612d02565b915061169b565b60008167ffffffffffffffff8111156116e1576116e0611f96565b5b6040519080825280601f01601f1916602001820160405280156117135781602001600182028036833780820191505090505b5090505b600085146117a05760018261172c9190612b02565b9150600a8561173b9190612d33565b60306117479190612b36565b60f81b81838151811061175d5761175c612d64565b5b60200101907effffffffffffffffffffffffffffffffffffffffffffffffffffffffffffff1916908160001a905350600a856117999190612d02565b9450611717565b8093505050505b919050565b600081600001549050919050565b6001816000016000828254019250508190555050565b6117ea82826040518060200160405280600081525061197b565b5050565b505050565b60006118148473ffffffffffffffffffffffffffffffffffffffff166119d6565b1561196e578373ffffffffffffffffffffffffffffffffffffffff1663150b7a0261183d610fc3565b8786866040518563ffffffff1660e01b815260040161185f9493929190612de8565b6020604051808303816000875af192505050801561189b57506040513d601f19601f820116820180604052508101906118989190612e49565b60015b61191e573d80600081146118cb576040519150601f19603f3d011682016040523d82523d6000602084013e6118d0565b606091505b50600081511415611916576040517f08c379a000000000000000000000000000000000000000000000000000000000815260040161190d90612c6a565b60405180910390fd5b805181602001fd5b63150b7a0260e01b7bffffffffffffffffffffffffffffffffffffffffffffffffffffffff1916817bffffffffffffffffffffffffffffffffffffffffffffffffffffffff191614915050611973565b600190505b949350505050565b61198583836119e9565b61199260008484846117f3565b6119d1576040517f08c379a00000000000000000000000000000000000000000000000000000000081526004016119c890612c6a565b60405180910390fd5b505050565b600080823b905060008111915050919050565b600073ffffffffffffffffffffffffffffffffffffffff168273ffffffffffffffffffffffffffffffffffffffff161415611a59576040517f08c379a0000000000000000000000000000000000000000000000000000000008152600401611a5090612ec2565b60405180910390fd5b611a6281610f57565b15611aa2576040517f08c379a0000000000000000000000000000000000000000000000000000000008152600401611a9990612f2e565b60405180910390fd5b611aae600083836117ee565b6001600460008473ffffffffffffffffffffffffffffffffffffffff1673ffffffffffffffffffffffffffffffffffffffff1681526020019081526020016000206000828254611afe9190612b36565b92505081905550816003600083815260200190815260200160002060006101000a81548173ffffffffffffffffffffffffffffffffffffffff021916908373ffffffffffffffffffffffffffffffffffffffff160217905550808273ffffffffffffffffffffffffffffffffffffffff16600073ffffffffffffffffffffffffffffffffffffffff167fddf252ad1be2c89b69c2b068fc378daa952ba7f163c4a11628f55a4df523b3ef60405160405180910390a45050565b828054611bc390612336565b90600052602060002090601f016020900481019282611be55760008555611c2c565b82601f10611bfe57805160ff1916838001178555611c2c565b82800160010185558215611c2c579182015b82811115611c2b578251825591602001919060010190611c10565b5b509050611c399190611c3d565b5090565b5b80821115611c56576000816000905550600101611c3e565b5090565b6000604051905090565b600080fd5b600080fd5b60007fffffffff0000000000000000000000000000000000000000000000000000000082169050919050565b611ca381611c6e565b8114611cae57600080fd5b50565b600081359050611cc081611c9a565b92915050565b600060208284031215611cdc57611cdb611c64565b5b6000611cea84828501611cb1565b91505092915050565b60008115159050919050565b611d0881611cf3565b82525050565b6000602082019050611d236000830184611cff565b92915050565b600081519050919050565b600082825260208201905092915050565b60005b83811015611d63578082015181840152602081019050611d48565b83811115611d72576000848401525b50505050565b6000601f19601f8301169050919050565b6000611d9482611d29565b611d9e8185611d34565b9350611dae818560208601611d45565b611db781611d78565b840191505092915050565b60006020820190508181036000830152611ddc8184611d89565b905092915050565b6000819050919050565b611df781611de4565b8114611e0257600080fd5b50565b600081359050611e1481611dee565b92915050565b600060208284031215611e3057611e2f611c64565b5b6000611e3e84828501611e05565b91505092915050565b600073ffffffffffffffffffffffffffffffffffffffff82169050919050565b6000611e7282611e47565b9050919050565b611e8281611e67565b82525050565b6000602082019050611e9d6000830184611e79565b92915050565b611eac81611e67565b8114611eb757600080fd5b50565b600081359050611ec981611ea3565b92915050565b60008060408385031215611ee657611ee5611c64565b5b6000611ef485828601611eba565b9250506020611f0585828601611e05565b9150509250929050565b611f1881611de4565b82525050565b6000602082019050611f336000830184611f0f565b92915050565b600080600060608486031215611f5257611f51611c64565b5b6000611f6086828701611eba565b9350506020611f7186828701611eba565b9250506040611f8286828701611e05565b9150509250925092565b600080fd5b600080fd5b7f4e487b7100000000000000000000000000000000000000000000000000000000600052604160045260246000fd5b611fce82611d78565b810181811067ffffffffffffffff82111715611fed57611fec611f96565b5b80604052505050565b6000612000611c5a565b905061200c8282611fc5565b919050565b600067ffffffffffffffff82111561202c5761202b611f96565b5b61203582611d78565b9050602081019050919050565b82818337600083830152505050565b600061206461205f84612011565b611ff6565b9050828152602081018484840111156120805761207f611f91565b5b61208b848285612042565b509392505050565b600082601f8301126120a8576120a7611f8c565b5b81356120b8848260208601612051565b91505092915050565b6000602082840312156120d7576120d6611c64565b5b600082013567ffffffffffffffff8111156120f5576120f4611c69565b5b61210184828501612093565b91505092915050565b6000602082840312156121205761211f611c64565b5b600061212e84828501611eba565b91505092915050565b61214081611cf3565b811461214b57600080fd5b50565b60008135905061215d81612137565b92915050565b6000806040838503121561217a57612179611c64565b5b600061218885828601611eba565b92505060206121998582860161214e565b9150509250929050565b600067ffffffffffffffff8211156121be576121bd611f96565b5b6121c782611d78565b9050602081019050919050565b60006121e76121e2846121a3565b611ff6565b90508281526020810184848401111561220357612202611f91565b5b61220e848285612042565b509392505050565b600082601f83011261222b5761222a611f8c565b5b813561223b8482602086016121d4565b91505092915050565b6000806000806080858703121561225e5761225d611c64565b5b600061226c87828801611eba565b945050602061227d87828801611eba565b935050604061228e87828801611e05565b925050606085013567ffffffffffffffff8111156122af576122ae611c69565b5b6122bb87828801612216565b91505092959194509250565b600080604083850312156122de576122dd611c64565b5b60006122ec85828601611eba565b92505060206122fd85828601611eba565b9150509250929050565b7f4e487b7100000000000000000000000000000000000000000000000000000000600052602260045260246000fd5b6000600282049050600182168061234e57607f821691505b6020821081141561236257612361612307565b5b50919050565b7f4552433732313a20617070726f76656420717565727920666f72206e6f6e657860008201527f697374656e7420746f6b656e0000000000000000000000000000000000000000602082015250565b60006123c4602c83611d34565b91506123cf82612368565b604082019050919050565b600060208201905081810360008301526123f3816123b7565b9050919050565b7f4552433732313a20617070726f76616c20746f2063757272656e74206f776e6560008201527f7200000000000000000000000000000000000000000000000000000000000000602082015250565b6000612456602183611d34565b9150612461826123fa565b604082019050919050565b6000602082019050818103600083015261248581612449565b9050919050565b7f4552433732313a20617070726f76652063616c6c6572206973206e6f74206f7760008201527f6e6572206e6f7220617070726f76656420666f7220616c6c0000000000000000602082015250565b60006124e8603883611d34565b91506124f38261248c565b604082019050919050565b60006020820190508181036000830152612517816124db565b9050919050565b7f4f776e61626c653a2063616c6c6572206973206e6f7420746865206f776e6572600082015250565b6000612554602083611d34565b915061255f8261251e565b602082019050919050565b6000602082019050818103600083015261258381612547565b9050919050565b7f4552433732313a207472616e736665722063616c6c6572206973206e6f74206f60008201527f776e6572206e6f7220617070726f766564000000000000000000000000000000602082015250565b60006125e6603183611d34565b91506125f18261258a565b604082019050919050565b60006020820190508181036000830152612615816125d9565b9050919050565b7f4552433732313a206f776e657220717565727920666f72206e6f6e657869737460008201527f656e7420746f6b656e0000000000000000000000000000000000000000000000602082015250565b6000612678602983611d34565b91506126838261261c565b604082019050919050565b600060208201905081810360008301526126a78161266b565b9050919050565b7f4552433732313a2062616c616e636520717565727920666f7220746865207a6560008201527f726f206164647265737300000000000000000000000000000000000000000000602082015250565b600061270a602a83611d34565b9150612715826126ae565b604082019050919050565b60006020820190508181036000830152612739816126fd565b9050919050565b600081905092915050565b60008190508160005260206000209050919050565b6000815461276d81612336565b6127778186612740565b9450600182166000811461279257600181146127a3576127d6565b60ff198316865281860193506127d6565b6127ac8561274b565b60005b838110156127ce578154818901526001820191506020810190506127af565b838801955050505b50505092915050565b60006127ea82611d29565b6127f48185612740565b9350612804818560208601611d45565b80840191505092915050565b7f2e6a736f6e000000000000000000000000000000000000000000000000000000600082015250565b6000612846600583612740565b915061285182612810565b600582019050919050565b60006128688285612760565b915061287482846127df565b915061287f82612839565b91508190509392505050565b7f4f776e61626c653a206e6577206f776e657220697320746865207a65726f206160008201527f6464726573730000000000000000000000000000000000000000000000000000602082015250565b60006128e7602683611d34565b91506128f28261288b565b604082019050919050565b60006020820190508181036000830152612916816128da565b9050919050565b7f4552433732313a206f70657261746f7220717565727920666f72206e6f6e657860008201527f697374656e7420746f6b656e0000000000000000000000000000000000000000602082015250565b6000612979602c83611d34565b91506129848261291d565b604082019050919050565b600060208201905081810360008301526129a88161296c565b9050919050565b7f4552433732313a207472616e73666572206f6620746f6b656e2074686174206960008201527f73206e6f74206f776e0000000000000000000000000000000000000000000000602082015250565b6000612a0b602983611d34565b9150612a16826129af565b604082019050919050565b60006020820190508181036000830152612a3a816129fe565b9050919050565b7f4552433732313a207472616e7366657220746f20746865207a65726f2061646460008201527f7265737300000000000000000000000000000000000000000000000000000000602082015250565b6000612a9d602483611d34565b9150612aa882612a41565b604082019050919050565b60006020820190508181036000830152612acc81612a90565b9050919050565b7f4e487b7100000000000000000000000000000000000000000000000000000000600052601160045260246000fd5b6000612b0d82611de4565b9150612b1883611de4565b925082821015612b2b57612b2a612ad3565b5b828203905092915050565b6000612b4182611de4565b9150612b4c83611de4565b9250827fffffffffffffffffffffffffffffffffffffffffffffffffffffffffffffffff03821115612b8157612b80612ad3565b5b828201905092915050565b7f4552433732313a20617070726f766520746f2063616c6c657200000000000000600082015250565b6000612bc2601983611d34565b9150612bcd82612b8c565b602082019050919050565b60006020820190508181036000830152612bf181612bb5565b9050919050565b7f4552433732313a207472616e7366657220746f206e6f6e20455243373231526560008201527f63656976657220696d706c656d656e7465720000000000000000000000000000602082015250565b6000612c54603283611d34565b9150612c5f82612bf8565b604082019050919050565b60006020820190508181036000830152612c8381612c47565b9050919050565b6000612c9582611de4565b91507fffffffffffffffffffffffffffffffffffffffffffffffffffffffffffffffff821415612cc857612cc7612ad3565b5b600182019050919050565b7f4e487b7100000000000000000000000000000000000000000000000000000000600052601260045260246000fd5b6000612d0d82611de4565b9150612d1883611de4565b925082612d2857612d27612cd3565b5b828204905092915050565b6000612d3e82611de4565b9150612d4983611de4565b925082612d5957612d58612cd3565b5b828206905092915050565b7f4e487b7100000000000000000000000000000000000000000000000000000000600052603260045260246000fd5b600081519050919050565b600082825260208201905092915050565b6000612dba82612d93565b612dc48185612d9e565b9350612dd4818560208601611d45565b612ddd81611d78565b840191505092915050565b6000608082019050612dfd6000830187611e79565b612e0a6020830186611e79565b612e176040830185611f0f565b8181036060830152612e298184612daf565b905095945050505050565b600081519050612e4381611c9a565b92915050565b600060208284031215612e5f57612e5e611c64565b5b6000612e6d84828501612e34565b91505092915050565b7f4552433732313a206d696e7420746f20746865207a65726f2061646472657373600082015250565b6000612eac602083611d34565b9150612eb782612e76565b602082019050919050565b60006020820190508181036000830152612edb81612e9f565b9050919050565b7f4552433732313a20746f6b656e20616c7265616479206d696e74656400000000600082015250565b6000612f18601c83611d34565b9150612f2382612ee2565b602082019050919050565b60006020820190508181036000830152612f4781612f0b565b905091905056fea2646970667358221220433529820fe945389d34287cc4436bdcbe6b880e4fdba3d0eadf63f245fda9bb64736f6c634300080a0033",
  "immutableReferences": {},
  "source": "// contracts/PixieLandHouses.sol\r\n// SPDX-License-Identifier: MIT\r\n\r\npragma solidity ^0.8.0;\r\n\r\nimport \"@openzeppelin/contracts/token/ERC721/ERC721.sol\";\r\nimport \"@openzeppelin/contracts/utils/Counters.sol\";\r\nimport \"@openzeppelin/contracts/access/Ownable.sol\";\r\n\r\n/// @title  Minting your House\r\n/// @notice using ERC721 standard for Houses\r\n\r\ncontract PixieLandHouses is Ownable, ERC721 {\r\n    using Strings for uint256;\r\n    using Counters for Counters.Counter;\r\n    Counters.Counter public totalHouses;\r\n    \r\n    string private _currentBaseURI;\r\n    uint256 private maxHouses = 10000;\r\n\r\n    constructor() ERC721(\"PixieLandHouses\", \"PXH\") {\r\n        setBaseURI(\"test/\");\r\n    }\r\n\r\n    function setBaseURI(string memory baseURI) public onlyOwner\r\n    {\r\n        _currentBaseURI = baseURI;\r\n    }\r\n\r\n    function _baseURI() internal view virtual override returns (string memory)\r\n    {\r\n        return _currentBaseURI;\r\n    }\r\n\r\n    function mintHouse() payable public\r\n    { \r\n        require(msg.value == 0.05 ether);\r\n        require(totalHouses.current() < maxHouses);\r\n\r\n        uint256 newHousesId = totalHouses.current();\r\n\r\n        totalHouses.increment();\r\n\r\n        _safeMint(msg.sender, newHousesId);\r\n        \r\n    }\r\n\r\n    function tokenURI(uint256 tokenId) public view virtual override returns (string memory)\r\n    {\r\n        return bytes(_currentBaseURI).length > 0 ? string(abi.encodePacked(_currentBaseURI, tokenId.toString(), \".json\")) : \"\";\r\n    }\r\n\r\n    /**\r\n     * @dev Converts a `uint256` to its ASCII `string` decimal representation.\r\n     */\r\n    function toString(uint256 value) internal pure returns (string memory) {\r\n        // Inspired by OraclizeAPI's implementation - MIT licence\r\n        // https://github.com/oraclize/ethereum-api/blob/b42146b063c7d6ee1358846c198246239e9360e8/oraclizeAPI_0.4.25.sol\r\n\r\n        if (value == 0) {\r\n            return \"0\";\r\n        }\r\n        uint256 temp = value;\r\n        uint256 digits;\r\n        while (temp != 0) {\r\n            digits++;\r\n            temp /= 10;\r\n        }\r\n        bytes memory buffer = new bytes(digits);\r\n        while (value != 0) {\r\n            digits -= 1;\r\n            buffer[digits] = bytes1(uint8(48 + uint256(value % 10)));\r\n            value /= 10;\r\n        }\r\n        return string(buffer);\r\n    }\r\n\r\n    function fetchBalance() external onlyOwner\r\n    {\r\n        payable(msg.sender).transfer(address(this).balance);\r\n    }\r\n}",
  "sourcePath": "C:\\Users\\cesar\\OneDrive\\Documents\\GitHub\\Pixieland\\contracts\\contracts\\PixieLandHouses.sol",
  "compiler": {
    "name": "solc",
    "version": "0.8.10+commit.fc410830.Emscripten.clang"
  },
  "schemaVersion": "3.4.3",
  "updatedAt": "2022-01-08T10:51:47.578Z",
  "networkType": "ethereum",
  "devdoc": {
    "kind": "dev",
    "methods": {
      "approve(address,uint256)": {
        "details": "See {IERC721-approve}."
      },
      "balanceOf(address)": {
        "details": "See {IERC721-balanceOf}."
      },
      "getApproved(uint256)": {
        "details": "See {IERC721-getApproved}."
      },
      "isApprovedForAll(address,address)": {
        "details": "See {IERC721-isApprovedForAll}."
      },
      "name()": {
        "details": "See {IERC721Metadata-name}."
      },
      "owner()": {
        "details": "Returns the address of the current owner."
      },
      "ownerOf(uint256)": {
        "details": "See {IERC721-ownerOf}."
      },
      "renounceOwnership()": {
        "details": "Leaves the contract without owner. It will not be possible to call `onlyOwner` functions anymore. Can only be called by the current owner. NOTE: Renouncing ownership will leave the contract without an owner, thereby removing any functionality that is only available to the owner."
      },
      "safeTransferFrom(address,address,uint256)": {
        "details": "See {IERC721-safeTransferFrom}."
      },
      "safeTransferFrom(address,address,uint256,bytes)": {
        "details": "See {IERC721-safeTransferFrom}."
      },
      "setApprovalForAll(address,bool)": {
        "details": "See {IERC721-setApprovalForAll}."
      },
      "supportsInterface(bytes4)": {
        "details": "See {IERC165-supportsInterface}."
      },
      "symbol()": {
        "details": "See {IERC721Metadata-symbol}."
      },
      "tokenURI(uint256)": {
        "details": "See {IERC721Metadata-tokenURI}."
      },
      "transferFrom(address,address,uint256)": {
        "details": "See {IERC721-transferFrom}."
      },
      "transferOwnership(address)": {
        "details": "Transfers ownership of the contract to a new account (`newOwner`). Can only be called by the current owner."
      }
    },
    "title": "Minting your House",
    "version": 1
  },
  "userdoc": {
    "kind": "user",
    "methods": {},
    "notice": "using ERC721 standard for Houses",
    "version": 1
  }
}